:1000000033EF00F0EA6A050EE96EEF500DE0060EE0
:10001000016E006A002EFED7012EFBD77B0E006E0C
:10002000002EFED7EF2EF3D71200928880A802D0C0
:10003000959C8C9C928880B8FDD7959C8C8CC80E22
:10004000056EE0DF959E8C9E1200928A80AA02D0F7
:10005000959A8C9A928A80BAFDD7959A8C8AC80E06
:10006000056ED0DF1200F86AD09E049004920494CA
:1000700004960498B990C19CC19E000EB86E000E03
:10008000956E9680049084B004809682049284B227
:10009000048204960498956A8C68928080B02FD070
:1000A000959E8C9E9680000E84B0010E066E000E0A
:1000B00004B0010E065C08E09680049084B00480D1
:1000C000968084B001D004869682000E84B2010E20
:1000D000066E000E04B2010E065C08E096820492E1
:1000E00084B20482968284B201D0048804A602D02D
:1000F00004969BDF04A802D00498A7DFCED7928095
:1001000080A02DD09680000E84B0010E066E000EE9
:1001100004B0010E065C08E09680049084B0048070
:10012000968084B001D004869682000E84B2010EBF
:10013000066E000E04B2010E065C08E09682049280
:1001400084B20482968284B201D0048804A602D0CC
:1001500004966BDF04A802D0049877DFD0D79DD730
:0201600003009A
:020000040030CA
:0E00000000C20E3E3C9D81000FC00FE00F407D
:00000001FF
;PIC18F4431
;CRC=DFD9  CREATED="18-Apr-18 13:10"
